{
  "contractName": "CoinFlip",
  "abi": [
    {
      "inputs": [],
      "payable": true,
      "stateMutability": "payable",
      "type": "constructor"
    },
    {
      "anonymous": false,
      "inputs": [
        {
          "indexed": false,
          "internalType": "string",
          "name": "description",
          "type": "string"
        }
      ],
      "name": "LogNewProvableQuery",
      "type": "event"
    },
    {
      "anonymous": false,
      "inputs": [
        {
          "indexed": false,
          "internalType": "bool",
          "name": "winner",
          "type": "bool"
        },
        {
          "indexed": false,
          "internalType": "uint256",
          "name": "winnings",
          "type": "uint256"
        }
      ],
      "name": "Result",
      "type": "event"
    },
    {
      "payable": true,
      "stateMutability": "payable",
      "type": "fallback"
    },
    {
      "constant": true,
      "inputs": [
        {
          "internalType": "address",
          "name": "",
          "type": "address"
        }
      ],
      "name": "playerLosses",
      "outputs": [
        {
          "internalType": "uint256",
          "name": "",
          "type": "uint256"
        }
      ],
      "payable": false,
      "stateMutability": "view",
      "type": "function"
    },
    {
      "constant": true,
      "inputs": [
        {
          "internalType": "address",
          "name": "",
          "type": "address"
        }
      ],
      "name": "playerWinings",
      "outputs": [
        {
          "internalType": "uint256",
          "name": "",
          "type": "uint256"
        }
      ],
      "payable": false,
      "stateMutability": "view",
      "type": "function"
    },
    {
      "constant": false,
      "inputs": [],
      "name": "destroy",
      "outputs": [],
      "payable": false,
      "stateMutability": "nonpayable",
      "type": "function"
    },
    {
      "constant": false,
      "inputs": [
        {
          "internalType": "uint8",
          "name": "_choice",
          "type": "uint8"
        }
      ],
      "name": "flip",
      "outputs": [],
      "payable": true,
      "stateMutability": "payable",
      "type": "function"
    },
    {
      "constant": false,
      "inputs": [
        {
          "internalType": "bytes32",
          "name": "_myid",
          "type": "bytes32"
        },
        {
          "internalType": "string",
          "name": "_result",
          "type": "string"
        }
      ],
      "name": "__callback",
      "outputs": [],
      "payable": false,
      "stateMutability": "nonpayable",
      "type": "function"
    },
    {
      "constant": false,
      "inputs": [
        {
          "internalType": "bytes32",
          "name": "_queryId",
          "type": "bytes32"
        },
        {
          "internalType": "string",
          "name": "_result",
          "type": "string"
        },
        {
          "internalType": "bytes",
          "name": "_proof",
          "type": "bytes"
        }
      ],
      "name": "__callback",
      "outputs": [],
      "payable": false,
      "stateMutability": "nonpayable",
      "type": "function"
    }
  ],
  "bytecode": "0x608060405233600860006101000a81548173ffffffffffffffffffffffffffffffffffffffff021916908373ffffffffffffffffffffffffffffffffffffffff160217905550612b89806100546000396000f3fe6080604052600436106100555760003560e01c806327dc297e1461005757806338bbfa5014610129578063638c06371461029257806383197ef0146102c357806385c34bf5146102da578063fedb848a1461033f575b005b34801561006357600080fd5b506101276004803603604081101561007a57600080fd5b8101908080359060200190929190803590602001906401000000008111156100a157600080fd5b8201836020820111156100b357600080fd5b803590602001918460018302840111640100000000831117156100d557600080fd5b91908080601f016020809104026020016040519081016040528093929190818152602001838380828437600081840152601f19601f8201169050808301925050505050505091929192905050506103a4565b005b34801561013557600080fd5b506102906004803603606081101561014c57600080fd5b81019080803590602001909291908035906020019064010000000081111561017357600080fd5b82018360208201111561018557600080fd5b803590602001918460018302840111640100000000831117156101a757600080fd5b91908080601f016020809104026020016040519081016040528093929190818152602001838380828437600081840152601f19601f8201169050808301925050505050505091929192908035906020019064010000000081111561020a57600080fd5b82018360208201111561021c57600080fd5b8035906020019184600183028401116401000000008311171561023e57600080fd5b91908080601f016020809104026020016040519081016040528093929190818152602001838380828437600081840152601f19601f8201169050808301925050505050505091929192905050506103e7565b005b6102c1600480360360208110156102a857600080fd5b81019080803560ff169060200190929190505050610760565b005b3480156102cf57600080fd5b506102d8610a13565b005b3480156102e657600080fd5b50610329600480360360208110156102fd57600080fd5b81019080803573ffffffffffffffffffffffffffffffffffffffff169060200190929190505050610ad2565b6040518082815260200191505060405180910390f35b34801561034b57600080fd5b5061038e6004803603602081101561036257600080fd5b81019080803573ffffffffffffffffffffffffffffffffffffffff169060200190929190505050610aea565b6040518082815260200191505060405180910390f35b6103e3828260006040519080825280601f01601f1916602001820160405280156103dd5781602001600182028038833980820191505090505b506103e7565b5050565b6103ef610b02565b73ffffffffffffffffffffffffffffffffffffffff163373ffffffffffffffffffffffffffffffffffffffff1614610472576040517f08c379a0000000000000000000000000000000000000000000000000000000008152600401808060200182810382526022815260200180612ad86022913960400191505060405180910390fd5b60006002836040516020018082805190602001908083835b602083106104ad578051825260208201915060208101905060208303925061048a565b6001836020036101000a0380198251168184511680821785525050505050509050019150506040516020818303038152906040528051906020012060001c816104f257fe5b0690506104fd6129b7565b600560008681526020019081526020016000206040518060600160405290816000820160009054906101000a900473ffffffffffffffffffffffffffffffffffffffff1673ffffffffffffffffffffffffffffffffffffffff1673ffffffffffffffffffffffffffffffffffffffff1681526020016000820160149054906101000a900460ff1660ff1660ff168152602001600182015481525050905060008260ff16826020015160ff16149050600080905081156106655760028360400151029050826000015173ffffffffffffffffffffffffffffffffffffffff166108fc829081150290604051600060405180830381858888f1935050505015801561060a573d6000803e3d6000fd5b50826040015160076000856000015173ffffffffffffffffffffffffffffffffffffffff1673ffffffffffffffffffffffffffffffffffffffff168152602001908152602001600020600082825401925050819055506106bb565b826040015160066000856000015173ffffffffffffffffffffffffffffffffffffffff1673ffffffffffffffffffffffffffffffffffffffff168152602001908152602001600020600082825401925050819055505b60056000888152602001908152602001600020600080820160006101000a81549073ffffffffffffffffffffffffffffffffffffffff02191690556000820160146101000a81549060ff0219169055600182016000905550507f504171f63fbaa091f1e3c9d09e602cb043bc18b415d87ac434eeffa20a35ce3c828260405180831515151581526020018281526020019250505060405180910390a150505050505050565b6702c68af0bb14000034116107dd576040517f08c379a000000000000000000000000000000000000000000000000000000000815260040180806020018281038252601e8152602001807f426574206d757374206265206174206c6561737420302e32204574686572000081525060200191505060405180910390fd5b3073ffffffffffffffffffffffffffffffffffffffff1631600234021115610850576040517f08c379a0000000000000000000000000000000000000000000000000000000008152600401808060200182810382526033815260200180612b226033913960400191505060405180910390fd5b60008160ff161480610865575060018160ff16145b6108d7576040517f08c379a000000000000000000000000000000000000000000000000000000000815260040180806020018281038252601c8152602001807f43686f696365206d757374206569746865722062652031206f7220300000000081525060200191505060405180910390fd5b60006108e960006001621e8480610e1f565b90507fc4dc360d0a9c0677a3379ae0a3d81e887f761e65fdf3d7e00859d1bcd3c473896040518080602001828103825260108152602001807f67656e657265617465642071756572790000000000000000000000000000000081525060200191505060405180910390a160405180606001604052803373ffffffffffffffffffffffffffffffffffffffff1681526020018360ff168152602001348152506005600083815260200190815260200160002060008201518160000160006101000a81548173ffffffffffffffffffffffffffffffffffffffff021916908373ffffffffffffffffffffffffffffffffffffffff16021790555060208201518160000160146101000a81548160ff021916908360ff160217905550604082015181600101559050505050565b600860009054906101000a900473ffffffffffffffffffffffffffffffffffffffff1673ffffffffffffffffffffffffffffffffffffffff163373ffffffffffffffffffffffffffffffffffffffff1614610ab9576040517f08c379a0000000000000000000000000000000000000000000000000000000008152600401808060200182810382526028815260200180612afa6028913960400191505060405180910390fd5b3373ffffffffffffffffffffffffffffffffffffffff16ff5b60076020528060005260406000206000915090505481565b60066020528060005260406000206000915090505481565b60008073ffffffffffffffffffffffffffffffffffffffff16600160009054906101000a900473ffffffffffffffffffffffffffffffffffffffff1673ffffffffffffffffffffffffffffffffffffffff161480610b8a57506000610b88600160009054906101000a900473ffffffffffffffffffffffffffffffffffffffff166113ba565b145b15610b9b57610b9960006113c5565b505b600160009054906101000a900473ffffffffffffffffffffffffffffffffffffffff1673ffffffffffffffffffffffffffffffffffffffff166338cc48316040518163ffffffff1660e01b8152600401602060405180830381600087803b158015610c0557600080fd5b505af1158015610c19573d6000803e3d6000fd5b505050506040513d6020811015610c2f57600080fd5b810190808051906020019092919050505073ffffffffffffffffffffffffffffffffffffffff166000809054906101000a900473ffffffffffffffffffffffffffffffffffffffff1673ffffffffffffffffffffffffffffffffffffffff1614610d7857600160009054906101000a900473ffffffffffffffffffffffffffffffffffffffff1673ffffffffffffffffffffffffffffffffffffffff166338cc48316040518163ffffffff1660e01b8152600401602060405180830381600087803b158015610cfd57600080fd5b505af1158015610d11573d6000803e3d6000fd5b505050506040513d6020811015610d2757600080fd5b81019080805190602001909291905050506000806101000a81548173ffffffffffffffffffffffffffffffffffffffff021916908373ffffffffffffffffffffffffffffffffffffffff1602179055505b6000809054906101000a900473ffffffffffffffffffffffffffffffffffffffff1673ffffffffffffffffffffffffffffffffffffffff1663c281d19e6040518163ffffffff1660e01b815260040160206040518083038186803b158015610ddf57600080fd5b505afa158015610df3573d6000803e3d6000fd5b505050506040513d6020811015610e0957600080fd5b8101908080519060200190929190505050905090565b60008083118015610e31575060208311155b610e3a57600080fd5b600a84029350606060016040519080825280601f01601f191660200182016040528015610e765781602001600182028038833980820191505090505b5090508360f81b81600081518110610e8a57fe5b60200101907effffffffffffffffffffffffffffffffffffffffffffffffffffffffffffff1916908160001a905350606060206040519080825280601f01601f191660200182016040528015610eef5781602001600182028038833980820191505090505b509050606060206040519080825280601f01601f191660200182016040528015610f285781602001600182028038833980820191505090505b5090506000610f356113d6565b905060208352424118600143034018602084015260208252806020830152606060206040519080825280601f01601f191660200182016040528015610f895781602001600182028038833980820191505090505b509050886020820152606060086040519080825280601f01601f191660200182016040528015610fc85781602001600182028038833980820191505090505b509050610fdb82601860088460006116f3565b50610fe46129f1565b604051806080016040528087815260200188815260200186815260200184815250905060006110496040518060400160405280600681526020017f72616e646f6d0000000000000000000000000000000000000000000000000000815250838c611752565b9050606060086040519080825280601f01601f1916602001820160405280156110815781602001600182028038833980820191505090505b50905060208401517f0100000000000000000000000000000000000000000000000000000000000000810460278301537e01000000000000000000000000000000000000000000000000000000000000810460268301537d010000000000000000000000000000000000000000000000000000000000810460258301537c0100000000000000000000000000000000000000000000000000000000810460248301537b01000000000000000000000000000000000000000000000000000000810460238301537a0100000000000000000000000000000000000000000000000000008104602283015379010000000000000000000000000000000000000000000000000081046021830153780100000000000000000000000000000000000000000000000081046020830153506113a78282856001600481106111c057fe5b60200201516002876000600481106111d457fe5b60200201516040518082805190602001908083835b6020831061120c57805182526020820191506020810190506020830392506111e9565b6001836020036101000a038019825116818451168082178552505050505050905001915050602060405180830381855afa15801561124e573d6000803e3d6000fd5b5050506040513d602081101561126357600080fd5b81019080805190602001909291905050508760026004811061128157fe5b60200201516040516020018085805190602001908083835b602083106112bc5780518252602082019150602081019050602083039250611299565b6001836020036101000a03801982511681845116808217855250505050505090500184805190602001908083835b6020831061130d57805182526020820191506020810190506020830392506112ea565b6001836020036101000a03801982511681845116808217855250505050505090500183815260200182805190602001908083835b602083106113645780518252602082019150602081019050602083039250611341565b6001836020036101000a03801982511681845116808217855250505050505090500194505050505060405160208183030381529060405280519060200120611abf565b8199505050505050505050509392505050565b6000813b9050919050565b60006113cf611adb565b9050919050565b60008073ffffffffffffffffffffffffffffffffffffffff16600160009054906101000a900473ffffffffffffffffffffffffffffffffffffffff1673ffffffffffffffffffffffffffffffffffffffff16148061145e5750600061145c600160009054906101000a900473ffffffffffffffffffffffffffffffffffffffff166113ba565b145b1561146f5761146d60006113c5565b505b600160009054906101000a900473ffffffffffffffffffffffffffffffffffffffff1673ffffffffffffffffffffffffffffffffffffffff166338cc48316040518163ffffffff1660e01b8152600401602060405180830381600087803b1580156114d957600080fd5b505af11580156114ed573d6000803e3d6000fd5b505050506040513d602081101561150357600080fd5b810190808051906020019092919050505073ffffffffffffffffffffffffffffffffffffffff166000809054906101000a900473ffffffffffffffffffffffffffffffffffffffff1673ffffffffffffffffffffffffffffffffffffffff161461164c57600160009054906101000a900473ffffffffffffffffffffffffffffffffffffffff1673ffffffffffffffffffffffffffffffffffffffff166338cc48316040518163ffffffff1660e01b8152600401602060405180830381600087803b1580156115d157600080fd5b505af11580156115e5573d6000803e3d6000fd5b505050506040513d60208110156115fb57600080fd5b81019080805190602001909291905050506000806101000a81548173ffffffffffffffffffffffffffffffffffffffff021916908373ffffffffffffffffffffffffffffffffffffffff1602179055505b6000809054906101000a900473ffffffffffffffffffffffffffffffffffffffff1673ffffffffffffffffffffffffffffffffffffffff1663abaa5f3e6040518163ffffffff1660e01b815260040160206040518083038186803b1580156116b357600080fd5b505afa1580156116c7573d6000803e3d6000fd5b505050506040513d60208110156116dd57600080fd5b8101908080519060200190929190505050905090565b606060008285019050808451101561170a57600080fd5b600086602001905060008460200190505b868860200101821015611743578189015180828801525060208201915060208101905061171b565b85935050505095945050505050565b60008073ffffffffffffffffffffffffffffffffffffffff16600160009054906101000a900473ffffffffffffffffffffffffffffffffffffffff1673ffffffffffffffffffffffffffffffffffffffff1614806117da575060006117d8600160009054906101000a900473ffffffffffffffffffffffffffffffffffffffff166113ba565b145b156117eb576117e960006113c5565b505b600160009054906101000a900473ffffffffffffffffffffffffffffffffffffffff1673ffffffffffffffffffffffffffffffffffffffff166338cc48316040518163ffffffff1660e01b8152600401602060405180830381600087803b15801561185557600080fd5b505af1158015611869573d6000803e3d6000fd5b505050506040513d602081101561187f57600080fd5b810190808051906020019092919050505073ffffffffffffffffffffffffffffffffffffffff166000809054906101000a900473ffffffffffffffffffffffffffffffffffffffff1673ffffffffffffffffffffffffffffffffffffffff16146119c857600160009054906101000a900473ffffffffffffffffffffffffffffffffffffffff1673ffffffffffffffffffffffffffffffffffffffff166338cc48316040518163ffffffff1660e01b8152600401602060405180830381600087803b15801561194d57600080fd5b505af1158015611961573d6000803e3d6000fd5b505050506040513d602081101561197757600080fd5b81019080805190602001909291905050506000806101000a81548173ffffffffffffffffffffffffffffffffffffffff021916908373ffffffffffffffffffffffffffffffffffffffff1602179055505b606060046040519080825280602002602001820160405280156119ff57816020015b60608152602001906001900390816119ea5790505b50905083600060048110611a0f57fe5b602002015181600081518110611a2157fe5b602002602001018190525083600160048110611a3957fe5b602002015181600181518110611a4b57fe5b602002602001018190525083600260048110611a6357fe5b602002015181600281518110611a7557fe5b602002602001018190525083600360048110611a8d57fe5b602002015181600381518110611a9f57fe5b6020026020010181905250611ab5858285612032565b9150509392505050565b8060036000848152602001908152602001600020819055505050565b600080611afb731d3b2638a7cc9f2cb3d298a3da7a90b67e5506ed6113ba565b1115611b9d57731d3b2638a7cc9f2cb3d298a3da7a90b67e5506ed600160006101000a81548173ffffffffffffffffffffffffffffffffffffffff021916908373ffffffffffffffffffffffffffffffffffffffff160217905550611b946040518060400160405280600b81526020017f6574685f6d61696e6e6574000000000000000000000000000000000000000000815250612594565b6001905061202f565b6000611bbc73c03a2615d5efaf5f49f60b7bb6583eaec212fdf16113ba565b1115611c5e5773c03a2615d5efaf5f49f60b7bb6583eaec212fdf1600160006101000a81548173ffffffffffffffffffffffffffffffffffffffff021916908373ffffffffffffffffffffffffffffffffffffffff160217905550611c556040518060400160405280600c81526020017f6574685f726f707374656e330000000000000000000000000000000000000000815250612594565b6001905061202f565b6000611c7d73b7a07bcf2ba2f2703b24c0691b5278999c59ac7e6113ba565b1115611d1f5773b7a07bcf2ba2f2703b24c0691b5278999c59ac7e600160006101000a81548173ffffffffffffffffffffffffffffffffffffffff021916908373ffffffffffffffffffffffffffffffffffffffff160217905550611d166040518060400160405280600981526020017f6574685f6b6f76616e0000000000000000000000000000000000000000000000815250612594565b6001905061202f565b6000611d3e73146500cfd35b22e4a392fe0adc06de1a1368ed486113ba565b1115611de05773146500cfd35b22e4a392fe0adc06de1a1368ed48600160006101000a81548173ffffffffffffffffffffffffffffffffffffffff021916908373ffffffffffffffffffffffffffffffffffffffff160217905550611dd76040518060400160405280600b81526020017f6574685f72696e6b656279000000000000000000000000000000000000000000815250612594565b6001905061202f565b6000611dff73a2998efd205fb9d4b4963afb70778d6354ad3a416113ba565b1115611ea15773a2998efd205fb9d4b4963afb70778d6354ad3a41600160006101000a81548173ffffffffffffffffffffffffffffffffffffffff021916908373ffffffffffffffffffffffffffffffffffffffff160217905550611e986040518060400160405280600a81526020017f6574685f676f65726c6900000000000000000000000000000000000000000000815250612594565b6001905061202f565b6000611ec0736f485c8bf6fc43ea212e93bbf8ce046c7f1cb4756113ba565b1115611f2457736f485c8bf6fc43ea212e93bbf8ce046c7f1cb475600160006101000a81548173ffffffffffffffffffffffffffffffffffffffff021916908373ffffffffffffffffffffffffffffffffffffffff1602179055506001905061202f565b6000611f437320e12a1f859b3feae5fb2a0a32c18f5a65555bbf6113ba565b1115611fa7577320e12a1f859b3feae5fb2a0a32c18f5a65555bbf600160006101000a81548173ffffffffffffffffffffffffffffffffffffffff021916908373ffffffffffffffffffffffffffffffffffffffff1602179055506001905061202f565b6000611fc67351efaf4c8b3c9afbd5ab9f4bbc82784ab6ef8faa6113ba565b111561202a577351efaf4c8b3c9afbd5ab9f4bbc82784ab6ef8faa600160006101000a81548173ffffffffffffffffffffffffffffffffffffffff021916908373ffffffffffffffffffffffffffffffffffffffff1602179055506001905061202f565b600090505b90565b60008073ffffffffffffffffffffffffffffffffffffffff16600160009054906101000a900473ffffffffffffffffffffffffffffffffffffffff1673ffffffffffffffffffffffffffffffffffffffff1614806120ba575060006120b8600160009054906101000a900473ffffffffffffffffffffffffffffffffffffffff166113ba565b145b156120cb576120c960006113c5565b505b600160009054906101000a900473ffffffffffffffffffffffffffffffffffffffff1673ffffffffffffffffffffffffffffffffffffffff166338cc48316040518163ffffffff1660e01b8152600401602060405180830381600087803b15801561213557600080fd5b505af1158015612149573d6000803e3d6000fd5b505050506040513d602081101561215f57600080fd5b810190808051906020019092919050505073ffffffffffffffffffffffffffffffffffffffff166000809054906101000a900473ffffffffffffffffffffffffffffffffffffffff1673ffffffffffffffffffffffffffffffffffffffff16146122a857600160009054906101000a900473ffffffffffffffffffffffffffffffffffffffff1673ffffffffffffffffffffffffffffffffffffffff166338cc48316040518163ffffffff1660e01b8152600401602060405180830381600087803b15801561222d57600080fd5b505af1158015612241573d6000803e3d6000fd5b505050506040513d602081101561225757600080fd5b81019080805190602001909291905050506000806101000a81548173ffffffffffffffffffffffffffffffffffffffff021916908373ffffffffffffffffffffffffffffffffffffffff1602179055505b60008060009054906101000a900473ffffffffffffffffffffffffffffffffffffffff1673ffffffffffffffffffffffffffffffffffffffff16632ef3accc86856040518363ffffffff1660e01b81526004018080602001838152602001828103825284818151815260200191508051906020019080838360005b8381101561233e578082015181840152602081019050612323565b50505050905090810190601f16801561236b5780820380516001836020036101000a031916815260200191505b509350505050602060405180830381600087803b15801561238b57600080fd5b505af115801561239f573d6000803e3d6000fd5b505050506040513d60208110156123b557600080fd5b81019080805190602001909291905050509050823a02670de0b6b3a7640000018111156123e8576000801b91505061258d565b60606123f3856125ae565b90506000809054906101000a900473ffffffffffffffffffffffffffffffffffffffff1673ffffffffffffffffffffffffffffffffffffffff1663c55c1cb68360008985896040518663ffffffff1660e01b8152600401808581526020018060200180602001848152602001838103835286818151815260200191508051906020019080838360005b8381101561249757808201518184015260208101905061247c565b50505050905090810190601f1680156124c45780820380516001836020036101000a031916815260200191505b50838103825285818151815260200191508051906020019080838360005b838110156124fd5780820151818401526020810190506124e2565b50505050905090810190601f16801561252a5780820380516001836020036101000a031916815260200191505b5096505050505050506020604051808303818588803b15801561254c57600080fd5b505af1158015612560573d6000803e3d6000fd5b50505050506040513d602081101561257757600080fd5b8101908080519060200190929190505050925050505b9392505050565b80600290805190602001906125aa929190612a18565b5050565b60606125b861262e565b6125c0612a98565b6125cc8161040061263a565b6125d581612684565b60008090505b83518110156126175761260a8482815181106125f357fe5b60200260200101518361269290919063ffffffff16565b80806001019150506125db565b50612621816126b7565b8060000151915050919050565b60405180590338823950565b600081905060006020828161264b57fe5b0614612664576020818161265b57fe5b06602003810190505b808360200181815250506040518084526000815281810160405250505050565b61268f8160046126c5565b50565b61269f82600283516126e6565b6126b2818361282690919063ffffffff16565b505050565b6126c28160076126c5565b50565b6126e2601f60058360ff16901b17836128d190919063ffffffff16565b5050565b601781116127125761270d8160058460ff16901b60ff1617846128d190919063ffffffff16565b612821565b60ff811161275357612737601860058460ff16901b17846128d190919063ffffffff16565b61274d816001856129119092919063ffffffff16565b50612820565b61ffff811161279557612779601960058460ff16901b17846128d190919063ffffffff16565b61278f816002856129119092919063ffffffff16565b5061281f565b63ffffffff81116127d9576127bd601a60058460ff16901b17846128d190919063ffffffff16565b6127d3816004856129119092919063ffffffff16565b5061281e565b67ffffffffffffffff811161281d57612805601b60058460ff16901b17846128d190919063ffffffff16565b61281b816008856129119092919063ffffffff16565b505b5b5b5b5b505050565b61282e612a98565b8260200151836000015151835101111561285e5761285d83600261285786602001518651612978565b02612994565b5b60008060008451905085518051602081830101945086518101825260208701935050505b602081106128a55781518352602083019250602082019150602081039050612882565b60006001826020036101000a039050801983511681855116818117865250508694505050505092915050565b816020015160018360000151510111156128f7576128f6826002846020015102612994565b5b815180516020818301018381536001820183525050505050565b612919612a98565b83602001518460000151518301111561294757612946846002612940876020015186612978565b02612994565b5b60006001836101000a0390508451805184818301018684198251161781528582018352505050849150509392505050565b60008183111561298a5782905061298e565b8190505b92915050565b6060826000015190506129a7838361263a565b6129b18382612826565b50505050565b6040518060600160405280600073ffffffffffffffffffffffffffffffffffffffff168152602001600060ff168152602001600081525090565b60405180608001604052806004905b6060815260200190600190039081612a005790505090565b828054600181600116156101000203166002900490600052602060002090601f016020900481019282601f10612a5957805160ff1916838001178555612a87565b82800160010185558215612a87579182015b82811115612a86578251825591602001919060010190612a6b565b5b509050612a949190612ab2565b5090565b604051806040016040528060608152602001600081525090565b612ad491905b80821115612ad0576000816000905550600101612ab8565b5090565b9056fe4f6e6c792070726f7661626c652063616e2063616c6c207468697320616374696f6e6f6e6c7920746865206f776e65722063616e2064657374726f79207468697320636f6e7472616374436f6e74726163742063616e277420706179206f75742074686174206b696e64206f66206d6f6e6579207269676874206e6f77a265627a7a72315820a379417a162242e03bba0f9540cda2d69cbf35ada241f6409cd6652a9923f66464736f6c634300050c0032",
  "source": "pragma solidity 0.5.12;\n\nimport \"./provableAPI.sol\";\n\ncontract CoinFlip is usingProvable {\n  struct Game {\n      address payable player;\n      uint8 choice;\n      uint bet;\n  }\n\n  mapping (bytes32 => Game) private pendingGames;\n  mapping (address => uint256) public playerLosses;\n  mapping (address => uint256) public playerWinings;\n  address private owner;\n\n  event Result(bool winner, uint256 winnings);\n  event LogNewProvableQuery(string description);\n\n  constructor() public payable {\n    owner = msg.sender;\n  }\n\n  function destroy() public {\n    require(msg.sender == owner, \"only the owner can destroy this contract\");\n    selfdestruct(msg.sender);\n  }\n\n  function () external payable { }\n\n  function flip(uint8 _choice) public payable {\n    require(msg.value > 0.2 ether, \"Bet must be at least 0.2 Ether\");\n    require(msg.value * 2 <= address(this).balance, \"Contract can't pay out that kind of money right now\");\n    require(_choice == 0 || _choice == 1, \"Choice must either be 1 or 0\");\n\n    bytes32 queryId = provable_newRandomDSQuery(\n        0,\n        1,\n        2000000\n    );\n\n    emit LogNewProvableQuery(\"genereated query\");\n    pendingGames[queryId] = Game(msg.sender, _choice, msg.value);\n  }\n\n  function __callback(bytes32 _queryId, string memory _result, bytes memory _proof) public {\n    require(msg.sender == provable_cbAddress(), \"Only provable can call this action\");\n    uint8 result = uint8(uint256(keccak256(abi.encodePacked(_result))) % 2);\n    Game memory game = pendingGames[_queryId];\n    bool playerWon = (game.choice == result);\n    uint256 winnings = 0;\n    if (playerWon) {\n      winnings = game.bet * 2;\n      game.player.transfer(winnings);\n      playerWinings[game.player] += game.bet;\n    } else {\n      playerLosses[game.player] += game.bet;\n    }\n    delete pendingGames[_queryId];\n    emit Result(playerWon, winnings);\n  }\n}",
  "sourcePath": "/Users/richard/Documents/Documents  Ries's mac/HS Leiden/Minor/Semester 2/BC2_Richard/Day_07/contracts/CoinFlip.sol",
  "compiler": {
    "name": "solc",
    "version": "0.5.12+commit.7709ece9.Emscripten.clang"
  },
  "schemaVersion": "3.0.16",
  "updatedAt": "2020-05-14T15:09:42.400Z",
  "devdoc": {
    "methods": {
      "__callback(bytes32,string)": {
        "details": "The following `__callback` functions are just placeholders ideally     meant to be defined in child contract when proofs are used.     The function bodies simply silence compiler warnings."
      }
    }
  },
  "userdoc": {
    "methods": {}
  }
}